{
  "address": "0x0226a11D2973c31C64C856aeCaCF23EcE93e43b7",
  "abi": [
    {
      "inputs": [
        {
          "internalType": "address[]",
          "name": "_routers",
          "type": "address[]"
        }
      ],
      "stateMutability": "nonpayable",
      "type": "constructor"
    },
    {
      "inputs": [
        {
          "internalType": "uint256",
          "name": "amountIn",
          "type": "uint256"
        },
        {
          "internalType": "address",
          "name": "tokenIn",
          "type": "address"
        },
        {
          "internalType": "address",
          "name": "tokenOut",
          "type": "address"
        }
      ],
      "name": "quote",
      "outputs": [
        {
          "internalType": "uint256",
          "name": "amountOut",
          "type": "uint256"
        },
        {
          "internalType": "address",
          "name": "router",
          "type": "address"
        },
        {
          "internalType": "address[]",
          "name": "path",
          "type": "address[]"
        }
      ],
      "stateMutability": "view",
      "type": "function"
    },
    {
      "inputs": [
        {
          "internalType": "uint256",
          "name": "",
          "type": "uint256"
        }
      ],
      "name": "routers",
      "outputs": [
        {
          "internalType": "address",
          "name": "",
          "type": "address"
        }
      ],
      "stateMutability": "view",
      "type": "function"
    },
    {
      "inputs": [
        {
          "internalType": "uint256",
          "name": "amountIn",
          "type": "uint256"
        },
        {
          "internalType": "uint256",
          "name": "amountOutMin",
          "type": "uint256"
        },
        {
          "internalType": "address",
          "name": "router",
          "type": "address"
        },
        {
          "internalType": "address[]",
          "name": "path",
          "type": "address[]"
        }
      ],
      "name": "swap",
      "outputs": [
        {
          "internalType": "uint256[]",
          "name": "amountsOut",
          "type": "uint256[]"
        }
      ],
      "stateMutability": "nonpayable",
      "type": "function"
    }
  ],
  "transactionHash": "0xf4cb23acc925d65db9549ebc5f9375981bda38e09728b7f6853b93a3d58de079",
  "args": [
    [
      "0x9Ac64Cc6e4415144C455BD8E4837Fea55603e5c3",
      "0x1b02dA8Cb0d097eB8D57A175b88c7D8b47997506",
      "0xD99D1c33F9fC3444f8101754aBC46c52416550D1"
    ]
  ],
  "numDeployments": 1,
  "solcInputHash": "38f96c7bbf4ac10ed93fa29c9d8ca999",
  "bytecode": "0x608060405234801561001057600080fd5b50604051610d00380380610d008339818101604052602081101561003357600080fd5b810190808051604051939291908464010000000082111561005357600080fd5b90830190602082018581111561006857600080fd5b825186602082028301116401000000008211171561008557600080fd5b82525081516020918201928201910280838360005b838110156100b257818101518382015260200161009a565b505050509190910160405250506001600081905583516100da935090915060208401906100e1565b505061016d565b828054828255906000526020600020908101928215610136579160200282015b8281111561013657825182546001600160a01b0319166001600160a01b03909116178255602090920191600190910190610101565b50610142929150610146565b5090565b61016a91905b808211156101425780546001600160a01b031916815560010161014c565b90565b610b848061017c6000396000f3fe608060405234801561001057600080fd5b50600436106100415760003560e01c80634e9c11181461004657806380ee43f51461007f578063b3d69dac14610127575b600080fd5b6100636004803603602081101561005c57600080fd5b5035610203565b604080516001600160a01b039092168252519081900360200190f35b6100b36004803603606081101561009557600080fd5b508035906001600160a01b036020820135811691604001351661022a565b60405180848152602001836001600160a01b03166001600160a01b0316815260200180602001828103825283818151815260200191508051906020019060200280838360005b838110156101115781810151838201526020016100f9565b5050505090500194505050505060405180910390f35b6101b36004803603608081101561013d57600080fd5b8135916020810135916001600160a01b03604083013516919081019060808101606082013564010000000081111561017457600080fd5b82018360208201111561018657600080fd5b803590602001918460208302840111640100000000831117156101a857600080fd5b5090925090506105b3565b60408051602080825283518183015283519192839290830191858101910280838360005b838110156101ef5781810151838201526020016101d7565b505050509050019250505060405180910390f35b6001818154811061021057fe5b6000918252602090912001546001600160a01b0316905081565b60008060606000861161026e576040805162461bcd60e51b815260206004820152600760248201526608585b5bdd5b9d60ca1b604482015290519081900360640190fd5b6001600160a01b0385166102b4576040805162461bcd60e51b815260206004820152600860248201526710ba37b5b2b724b760c11b604482015290519081900360640190fd5b6001600160a01b0384166102fb576040805162461bcd60e51b8152602060048201526009602482015268085d1bdad95b93dd5d60ba1b604482015290519081900360640190fd5b6040805160028082526060808301845292602083019080368337019050509050858160008151811061032957fe5b60200260200101906001600160a01b031690816001600160a01b031681525050848160018151811061035757fe5b60200260200101906001600160a01b031690816001600160a01b03168152505061037f610b37565b60005b6001548110156105775760006001828154811061039b57fe5b9060005260206000200160009054906101000a90046001600160a01b0316905060008190506060816001600160a01b031663d06ca61f8d886040518363ffffffff1660e01b81526004018083815260200180602001828103825283818151815260200191508051906020019060200280838360005b83811015610428578181015183820152602001610410565b50505050905001935050505060006040518083038186803b15801561044c57600080fd5b505afa158015610460573d6000803e3d6000fd5b505050506040513d6000823e601f3d908101601f19168201604052602081101561048957600080fd5b81019080805160405193929190846401000000008211156104a957600080fd5b9083019060208201858111156104be57600080fd5b82518660208202830111640100000000821117156104db57600080fd5b82525081516020918201928201910280838360005b838110156105085781810151838201526020016104f0565b50505050905001604052505050905084600001518160018151811061052957fe5b6020026020010151111561056c5760405180604001604052808260018151811061054f57fe5b60200260200101518152602001846001600160a01b031681525094505b505050600101610382565b5061059c60405180604001604052806003815260200162195b9960ea1b815250610a07565b805160209091015190989097509095509350505050565b60606105bd610ab0565b600086116105fe576040805162461bcd60e51b815260206004820152600960248201526810b0b6b7bab73a24b760b91b604482015290519081900360640190fd5b60008511610643576040805162461bcd60e51b815260206004820152600d60248201526c10b0b6b7bab73a27baba26b4b760991b604482015290519081900360640190fd5b6001600160a01b038416610688576040805162461bcd60e51b815260206004820152600760248201526610b937baba32b960c91b604482015290519081900360640190fd5b6040805160028082526060808301845292602083019080368337019050509050838360008181106106b557fe5b905060200201356001600160a01b0316816000815181106106d257fe5b60200260200101906001600160a01b031690816001600160a01b031681525050838360018181106106ff57fe5b905060200201356001600160a01b03168160018151811061071c57fe5b60200260200101906001600160a01b031690816001600160a01b0316815250508060008151811061074957fe5b602090810291909101810151604080516323b872dd60e01b8152336004820152306024820152604481018b905290516001600160a01b03909216926323b872dd926064808401938290030181600087803b1580156107a657600080fd5b505af11580156107ba573d6000803e3d6000fd5b505050506040513d60208110156107d057600080fd5b5050805181906000906107df57fe5b60200260200101516001600160a01b031663095ea7b386896040518363ffffffff1660e01b815260040180836001600160a01b03166001600160a01b0316815260200182815260200192505050602060405180830381600087803b15801561084657600080fd5b505af115801561085a573d6000803e3d6000fd5b505050506040513d602081101561087057600080fd5b50506040516338ed173960e01b8152600481018881526024820188905233606483018190526201518042016084840181905260a060448501908152855160a486015285518a9592946001600160a01b038716946338ed1739948f948f948b948a9390929160c4909101906020878101910280838360005b838110156108ff5781810151838201526020016108e7565b505050509050019650505050505050600060405180830381600087803b15801561092857600080fd5b505af115801561093c573d6000803e3d6000fd5b505050506040513d6000823e601f3d908101601f19168201604052602081101561096557600080fd5b810190808051604051939291908464010000000082111561098557600080fd5b90830190602082018581111561099a57600080fd5b82518660208202830111640100000000821117156109b757600080fd5b82525081516020918201928201910280838360005b838110156109e45781810151838201526020016109cc565b5050505090500160405250505093505050506109fe610b0f565b95945050505050565b610aad816040516024018080602001828103825283818151815260200191508051906020019080838360005b83811015610a4b578181015183820152602001610a33565b50505050905090810190601f168015610a785780820380516001836020036101000a031916815260200191505b5060408051601f198184030181529190526020810180516001600160e01b031663104c13eb60e21b1790529250610b16915050565b50565b60026000541415610b08576040805162461bcd60e51b815260206004820152601f60248201527f5265656e7472616e637947756172643a207265656e7472616e742063616c6c00604482015290519081900360640190fd5b6002600055565b6001600055565b80516a636f6e736f6c652e6c6f67602083016000808483855afa5050505050565b60408051808201909152600080825260208201529056fea26469706673582212208c34575736c4f933672f99a067a7b1a386a7795b07a984e3814ea1dbee0c87f264736f6c63430006060033",
  "devdoc": {
    "methods": {
      "quote(uint256,address,address)": {
        "params": {
          "amountIn": "input amount",
          "tokenIn": "source token",
          "tokenOut": "destination token"
        }
      },
      "swap(uint256,uint256,address,address[])": {
        "params": {
          "amountIn": "input amount",
          "amountOutMin": "minumum output amount",
          "path": "tokens list to swap",
          "router": "Uniswap-like router to swap tokens on"
        }
      }
    }
  },
  "userdoc": {
    "methods": {
      "quote(uint256,address,address)": {
        "notice": "Gets router* and path* that give max output amount with input amount and tokensreturn max output amount and router and path, that give this output amount router* - Uniswap-like Router path* - token list to swap"
      },
      "swap(uint256,uint256,address,address[])": {
        "notice": "Swaps tokens on router with path, should check slippagereturn actual output amount"
      }
    }
  },
  "storageLayout": {
    "storage": [
      {
        "astId": 680,
        "contract": "contracts/Agregator.sol:UniswapRouterAgregator",
        "label": "_status",
        "offset": 0,
        "slot": "0",
        "type": "t_uint256"
      },
      {
        "astId": 323,
        "contract": "contracts/Agregator.sol:UniswapRouterAgregator",
        "label": "routers",
        "offset": 0,
        "slot": "1",
        "type": "t_array(t_address)dyn_storage"
      }
    ],
    "types": {
      "t_address": {
        "encoding": "inplace",
        "label": "address",
        "numberOfBytes": "20"
      },
      "t_array(t_address)dyn_storage": {
        "base": "t_address",
        "encoding": "dynamic_array",
        "label": "address[]",
        "numberOfBytes": "32"
      },
      "t_uint256": {
        "encoding": "inplace",
        "label": "uint256",
        "numberOfBytes": "32"
      }
    }
  }
}